{
	"contracts/Counter.sol": {
		"Counter": {
			"abi": [
				{
					"inputs": [
						{
							"internalType": "string",
							"name": "_name",
							"type": "string"
						},
						{
							"internalType": "uint256",
							"name": "_intialCount",
							"type": "uint256"
						}
					],
					"stateMutability": "nonpayable",
					"type": "constructor"
				},
				{
					"inputs": [],
					"name": "count",
					"outputs": [
						{
							"internalType": "uint256",
							"name": "",
							"type": "uint256"
						}
					],
					"stateMutability": "view",
					"type": "function"
				},
				{
					"inputs": [],
					"name": "increment",
					"outputs": [
						{
							"internalType": "uint256",
							"name": "newCount",
							"type": "uint256"
						}
					],
					"stateMutability": "nonpayable",
					"type": "function"
				},
				{
					"inputs": [],
					"name": "name",
					"outputs": [
						{
							"internalType": "string",
							"name": "",
							"type": "string"
						}
					],
					"stateMutability": "view",
					"type": "function"
				}
			],
			"devdoc": {
				"kind": "dev",
				"methods": {},
				"version": 1
			},
			"evm": {
				"assembly": "    /* \"contracts/Counter.sol\":27:599  contract Counter{\r... */\n  mstore(0x40, 0x80)\n    /* \"contracts/Counter.sol\":160:258  constructor( string memory _name , uint _intialCount){\r... */\n  callvalue\n  dup1\n  iszero\n  tag_1\n  jumpi\n  0x00\n  dup1\n  revert\ntag_1:\n  pop\n  mload(0x40)\n  sub(codesize, bytecodeSize)\n  dup1\n  bytecodeSize\n  dup4\n  codecopy\n  dup2\n  dup2\n  add\n  0x40\n  mstore\n  dup2\n  add\n  swap1\n  tag_2\n  swap2\n  swap1\n  tag_3\n  jump\t// in\ntag_2:\n    /* \"contracts/Counter.sol\":221:226  _name */\n  dup2\n    /* \"contracts/Counter.sol\":216:220  name */\n  0x00\n    /* \"contracts/Counter.sol\":216:226  name=_name */\n  swap1\n  dup1\n  mload\n  swap1\n  0x20\n  add\n  swap1\n  tag_6\n  swap3\n  swap2\n  swap1\n  tag_7\n  jump\t// in\ntag_6:\n  pop\n    /* \"contracts/Counter.sol\":235:247  _intialCount */\n  dup1\n    /* \"contracts/Counter.sol\":229:234  count */\n  0x01\n    /* \"contracts/Counter.sol\":229:247  count=_intialCount */\n  dup2\n  swap1\n  sstore\n  pop\n    /* \"contracts/Counter.sol\":160:258  constructor( string memory _name , uint _intialCount){\r... */\n  pop\n  pop\n    /* \"contracts/Counter.sol\":27:599  contract Counter{\r... */\n  jump(tag_8)\ntag_7:\n  dup3\n  dup1\n  sload\n  tag_9\n  swap1\n  tag_10\n  jump\t// in\ntag_9:\n  swap1\n  0x00\n  mstore\n  keccak256(0x00, 0x20)\n  swap1\n  0x1f\n  add\n  0x20\n  swap1\n  div\n  dup2\n  add\n  swap3\n  dup3\n  tag_12\n  jumpi\n  0x00\n  dup6\n  sstore\n  jump(tag_11)\ntag_12:\n  dup3\n  0x1f\n  lt\n  tag_13\n  jumpi\n  dup1\n  mload\n  not(0xff)\n  and\n  dup4\n  dup1\n  add\n  or\n  dup6\n  sstore\n  jump(tag_11)\ntag_13:\n  dup3\n  dup1\n  add\n  0x01\n  add\n  dup6\n  sstore\n  dup3\n  iszero\n  tag_11\n  jumpi\n  swap2\n  dup3\n  add\ntag_14:\n  dup3\n  dup2\n  gt\n  iszero\n  tag_15\n  jumpi\n  dup3\n  mload\n  dup3\n  sstore\n  swap2\n  0x20\n  add\n  swap2\n  swap1\n  0x01\n  add\n  swap1\n  jump(tag_14)\ntag_15:\ntag_11:\n  pop\n  swap1\n  pop\n  tag_16\n  swap2\n  swap1\n  tag_17\n  jump\t// in\ntag_16:\n  pop\n  swap1\n  jump\t// out\ntag_17:\ntag_18:\n  dup1\n  dup3\n  gt\n  iszero\n  tag_19\n  jumpi\n  0x00\n  dup2\n  0x00\n  swap1\n  sstore\n  pop\n  0x01\n  add\n  jump(tag_18)\ntag_19:\n  pop\n  swap1\n  jump\t// out\n    /* \"#utility.yul\":7:428   */\ntag_21:\n    /* \"#utility.yul\":96:101   */\n  0x00\n    /* \"#utility.yul\":121:187   */\n  tag_23\n    /* \"#utility.yul\":137:186   */\n  tag_24\n    /* \"#utility.yul\":179:185   */\n  dup5\n    /* \"#utility.yul\":137:186   */\n  tag_25\n  jump\t// in\ntag_24:\n    /* \"#utility.yul\":121:187   */\n  tag_26\n  jump\t// in\ntag_23:\n    /* \"#utility.yul\":112:187   */\n  swap1\n  pop\n    /* \"#utility.yul\":210:216   */\n  dup3\n    /* \"#utility.yul\":203:208   */\n  dup2\n    /* \"#utility.yul\":196:217   */\n  mstore\n    /* \"#utility.yul\":248:252   */\n  0x20\n    /* \"#utility.yul\":241:246   */\n  dup2\n    /* \"#utility.yul\":237:253   */\n  add\n    /* \"#utility.yul\":286:289   */\n  dup5\n    /* \"#utility.yul\":277:283   */\n  dup5\n    /* \"#utility.yul\":272:275   */\n  dup5\n    /* \"#utility.yul\":268:284   */\n  add\n    /* \"#utility.yul\":265:290   */\n  gt\n    /* \"#utility.yul\":262:374   */\n  iszero\n  tag_27\n  jumpi\n    /* \"#utility.yul\":293:372   */\n  tag_28\n  tag_29\n  jump\t// in\ntag_28:\n    /* \"#utility.yul\":262:374   */\ntag_27:\n    /* \"#utility.yul\":383:422   */\n  tag_30\n    /* \"#utility.yul\":415:421   */\n  dup5\n    /* \"#utility.yul\":410:413   */\n  dup3\n    /* \"#utility.yul\":405:408   */\n  dup6\n    /* \"#utility.yul\":383:422   */\n  tag_31\n  jump\t// in\ntag_30:\n    /* \"#utility.yul\":102:428   */\n  pop\n    /* \"#utility.yul\":7:428   */\n  swap4\n  swap3\n  pop\n  pop\n  pop\n  jump\t// out\n    /* \"#utility.yul\":448:803   */\ntag_32:\n    /* \"#utility.yul\":515:520   */\n  0x00\n    /* \"#utility.yul\":564:567   */\n  dup3\n    /* \"#utility.yul\":557:561   */\n  0x1f\n    /* \"#utility.yul\":549:555   */\n  dup4\n    /* \"#utility.yul\":545:562   */\n  add\n    /* \"#utility.yul\":541:568   */\n  slt\n    /* \"#utility.yul\":531:653   */\n  tag_34\n  jumpi\n    /* \"#utility.yul\":572:651   */\n  tag_35\n  tag_36\n  jump\t// in\ntag_35:\n    /* \"#utility.yul\":531:653   */\ntag_34:\n    /* \"#utility.yul\":682:688   */\n  dup2\n    /* \"#utility.yul\":676:689   */\n  mload\n    /* \"#utility.yul\":707:797   */\n  tag_37\n    /* \"#utility.yul\":793:796   */\n  dup5\n    /* \"#utility.yul\":785:791   */\n  dup3\n    /* \"#utility.yul\":778:782   */\n  0x20\n    /* \"#utility.yul\":770:776   */\n  dup7\n    /* \"#utility.yul\":766:783   */\n  add\n    /* \"#utility.yul\":707:797   */\n  tag_21\n  jump\t// in\ntag_37:\n    /* \"#utility.yul\":698:797   */\n  swap2\n  pop\n    /* \"#utility.yul\":521:803   */\n  pop\n    /* \"#utility.yul\":448:803   */\n  swap3\n  swap2\n  pop\n  pop\n  jump\t// out\n    /* \"#utility.yul\":809:952   */\ntag_38:\n    /* \"#utility.yul\":866:871   */\n  0x00\n    /* \"#utility.yul\":897:903   */\n  dup2\n    /* \"#utility.yul\":891:904   */\n  mload\n    /* \"#utility.yul\":882:904   */\n  swap1\n  pop\n    /* \"#utility.yul\":913:946   */\n  tag_40\n    /* \"#utility.yul\":940:945   */\n  dup2\n    /* \"#utility.yul\":913:946   */\n  tag_41\n  jump\t// in\ntag_40:\n    /* \"#utility.yul\":809:952   */\n  swap3\n  swap2\n  pop\n  pop\n  jump\t// out\n    /* \"#utility.yul\":958:1638   */\ntag_3:\n    /* \"#utility.yul\":1047:1053   */\n  0x00\n    /* \"#utility.yul\":1055:1061   */\n  dup1\n    /* \"#utility.yul\":1104:1106   */\n  0x40\n    /* \"#utility.yul\":1092:1101   */\n  dup4\n    /* \"#utility.yul\":1083:1090   */\n  dup6\n    /* \"#utility.yul\":1079:1102   */\n  sub\n    /* \"#utility.yul\":1075:1107   */\n  slt\n    /* \"#utility.yul\":1072:1191   */\n  iszero\n  tag_43\n  jumpi\n    /* \"#utility.yul\":1110:1189   */\n  tag_44\n  tag_45\n  jump\t// in\ntag_44:\n    /* \"#utility.yul\":1072:1191   */\ntag_43:\n    /* \"#utility.yul\":1251:1252   */\n  0x00\n    /* \"#utility.yul\":1240:1249   */\n  dup4\n    /* \"#utility.yul\":1236:1253   */\n  add\n    /* \"#utility.yul\":1230:1254   */\n  mload\n    /* \"#utility.yul\":1281:1299   */\n  0xffffffffffffffff\n    /* \"#utility.yul\":1273:1279   */\n  dup2\n    /* \"#utility.yul\":1270:1300   */\n  gt\n    /* \"#utility.yul\":1267:1384   */\n  iszero\n  tag_46\n  jumpi\n    /* \"#utility.yul\":1303:1382   */\n  tag_47\n  tag_48\n  jump\t// in\ntag_47:\n    /* \"#utility.yul\":1267:1384   */\ntag_46:\n    /* \"#utility.yul\":1408:1482   */\n  tag_49\n    /* \"#utility.yul\":1474:1481   */\n  dup6\n    /* \"#utility.yul\":1465:1471   */\n  dup3\n    /* \"#utility.yul\":1454:1463   */\n  dup7\n    /* \"#utility.yul\":1450:1472   */\n  add\n    /* \"#utility.yul\":1408:1482   */\n  tag_32\n  jump\t// in\ntag_49:\n    /* \"#utility.yul\":1398:1482   */\n  swap3\n  pop\n    /* \"#utility.yul\":1201:1492   */\n  pop\n    /* \"#utility.yul\":1531:1533   */\n  0x20\n    /* \"#utility.yul\":1557:1621   */\n  tag_50\n    /* \"#utility.yul\":1613:1620   */\n  dup6\n    /* \"#utility.yul\":1604:1610   */\n  dup3\n    /* \"#utility.yul\":1593:1602   */\n  dup7\n    /* \"#utility.yul\":1589:1611   */\n  add\n    /* \"#utility.yul\":1557:1621   */\n  tag_38\n  jump\t// in\ntag_50:\n    /* \"#utility.yul\":1547:1621   */\n  swap2\n  pop\n    /* \"#utility.yul\":1502:1631   */\n  pop\n    /* \"#utility.yul\":958:1638   */\n  swap3\n  pop\n  swap3\n  swap1\n  pop\n  jump\t// out\n    /* \"#utility.yul\":1644:1773   */\ntag_26:\n    /* \"#utility.yul\":1678:1684   */\n  0x00\n    /* \"#utility.yul\":1705:1725   */\n  tag_52\n  tag_53\n  jump\t// in\ntag_52:\n    /* \"#utility.yul\":1695:1725   */\n  swap1\n  pop\n    /* \"#utility.yul\":1734:1767   */\n  tag_54\n    /* \"#utility.yul\":1762:1766   */\n  dup3\n    /* \"#utility.yul\":1754:1760   */\n  dup3\n    /* \"#utility.yul\":1734:1767   */\n  tag_55\n  jump\t// in\ntag_54:\n    /* \"#utility.yul\":1644:1773   */\n  swap2\n  swap1\n  pop\n  jump\t// out\n    /* \"#utility.yul\":1779:1854   */\ntag_53:\n    /* \"#utility.yul\":1812:1818   */\n  0x00\n    /* \"#utility.yul\":1845:1847   */\n  0x40\n    /* \"#utility.yul\":1839:1848   */\n  mload\n    /* \"#utility.yul\":1829:1848   */\n  swap1\n  pop\n    /* \"#utility.yul\":1779:1854   */\n  swap1\n  jump\t// out\n    /* \"#utility.yul\":1860:2168   */\ntag_25:\n    /* \"#utility.yul\":1922:1926   */\n  0x00\n    /* \"#utility.yul\":2012:2030   */\n  0xffffffffffffffff\n    /* \"#utility.yul\":2004:2010   */\n  dup3\n    /* \"#utility.yul\":2001:2031   */\n  gt\n    /* \"#utility.yul\":1998:2054   */\n  iszero\n  tag_58\n  jumpi\n    /* \"#utility.yul\":2034:2052   */\n  tag_59\n  tag_60\n  jump\t// in\ntag_59:\n    /* \"#utility.yul\":1998:2054   */\ntag_58:\n    /* \"#utility.yul\":2072:2101   */\n  tag_61\n    /* \"#utility.yul\":2094:2100   */\n  dup3\n    /* \"#utility.yul\":2072:2101   */\n  tag_62\n  jump\t// in\ntag_61:\n    /* \"#utility.yul\":2064:2101   */\n  swap1\n  pop\n    /* \"#utility.yul\":2156:2160   */\n  0x20\n    /* \"#utility.yul\":2150:2154   */\n  dup2\n    /* \"#utility.yul\":2146:2161   */\n  add\n    /* \"#utility.yul\":2138:2161   */\n  swap1\n  pop\n    /* \"#utility.yul\":1860:2168   */\n  swap2\n  swap1\n  pop\n  jump\t// out\n    /* \"#utility.yul\":2174:2251   */\ntag_63:\n    /* \"#utility.yul\":2211:2218   */\n  0x00\n    /* \"#utility.yul\":2240:2245   */\n  dup2\n    /* \"#utility.yul\":2229:2245   */\n  swap1\n  pop\n    /* \"#utility.yul\":2174:2251   */\n  swap2\n  swap1\n  pop\n  jump\t// out\n    /* \"#utility.yul\":2257:2564   */\ntag_31:\n    /* \"#utility.yul\":2325:2326   */\n  0x00\n    /* \"#utility.yul\":2335:2448   */\ntag_66:\n    /* \"#utility.yul\":2349:2355   */\n  dup4\n    /* \"#utility.yul\":2346:2347   */\n  dup2\n    /* \"#utility.yul\":2343:2356   */\n  lt\n    /* \"#utility.yul\":2335:2448   */\n  iszero\n  tag_68\n  jumpi\n    /* \"#utility.yul\":2434:2435   */\n  dup1\n    /* \"#utility.yul\":2429:2432   */\n  dup3\n    /* \"#utility.yul\":2425:2436   */\n  add\n    /* \"#utility.yul\":2419:2437   */\n  mload\n    /* \"#utility.yul\":2415:2416   */\n  dup2\n    /* \"#utility.yul\":2410:2413   */\n  dup5\n    /* \"#utility.yul\":2406:2417   */\n  add\n    /* \"#utility.yul\":2399:2438   */\n  mstore\n    /* \"#utility.yul\":2371:2373   */\n  0x20\n    /* \"#utility.yul\":2368:2369   */\n  dup2\n    /* \"#utility.yul\":2364:2374   */\n  add\n    /* \"#utility.yul\":2359:2374   */\n  swap1\n  pop\n    /* \"#utility.yul\":2335:2448   */\n  jump(tag_66)\ntag_68:\n    /* \"#utility.yul\":2466:2472   */\n  dup4\n    /* \"#utility.yul\":2463:2464   */\n  dup2\n    /* \"#utility.yul\":2460:2473   */\n  gt\n    /* \"#utility.yul\":2457:2558   */\n  iszero\n  tag_69\n  jumpi\n    /* \"#utility.yul\":2546:2547   */\n  0x00\n    /* \"#utility.yul\":2537:2543   */\n  dup5\n    /* \"#utility.yul\":2532:2535   */\n  dup5\n    /* \"#utility.yul\":2528:2544   */\n  add\n    /* \"#utility.yul\":2521:2548   */\n  mstore\n    /* \"#utility.yul\":2457:2558   */\ntag_69:\n    /* \"#utility.yul\":2306:2564   */\n  pop\n    /* \"#utility.yul\":2257:2564   */\n  pop\n  pop\n  pop\n  jump\t// out\n    /* \"#utility.yul\":2570:2890   */\ntag_10:\n    /* \"#utility.yul\":2614:2620   */\n  0x00\n    /* \"#utility.yul\":2651:2652   */\n  0x02\n    /* \"#utility.yul\":2645:2649   */\n  dup3\n    /* \"#utility.yul\":2641:2653   */\n  div\n    /* \"#utility.yul\":2631:2653   */\n  swap1\n  pop\n    /* \"#utility.yul\":2698:2699   */\n  0x01\n    /* \"#utility.yul\":2692:2696   */\n  dup3\n    /* \"#utility.yul\":2688:2700   */\n  and\n    /* \"#utility.yul\":2719:2737   */\n  dup1\n    /* \"#utility.yul\":2709:2790   */\n  tag_71\n  jumpi\n    /* \"#utility.yul\":2775:2779   */\n  0x7f\n    /* \"#utility.yul\":2767:2773   */\n  dup3\n    /* \"#utility.yul\":2763:2780   */\n  and\n    /* \"#utility.yul\":2753:2780   */\n  swap2\n  pop\n    /* \"#utility.yul\":2709:2790   */\ntag_71:\n    /* \"#utility.yul\":2837:2839   */\n  0x20\n    /* \"#utility.yul\":2829:2835   */\n  dup3\n    /* \"#utility.yul\":2826:2840   */\n  lt\n    /* \"#utility.yul\":2806:2824   */\n  dup2\n    /* \"#utility.yul\":2803:2841   */\n  eq\n    /* \"#utility.yul\":2800:2884   */\n  iszero\n  tag_72\n  jumpi\n    /* \"#utility.yul\":2856:2874   */\n  tag_73\n  tag_74\n  jump\t// in\ntag_73:\n    /* \"#utility.yul\":2800:2884   */\ntag_72:\n    /* \"#utility.yul\":2621:2890   */\n  pop\n    /* \"#utility.yul\":2570:2890   */\n  swap2\n  swap1\n  pop\n  jump\t// out\n    /* \"#utility.yul\":2896:3177   */\ntag_55:\n    /* \"#utility.yul\":2979:3006   */\n  tag_76\n    /* \"#utility.yul\":3001:3005   */\n  dup3\n    /* \"#utility.yul\":2979:3006   */\n  tag_62\n  jump\t// in\ntag_76:\n    /* \"#utility.yul\":2971:2977   */\n  dup2\n    /* \"#utility.yul\":2967:3007   */\n  add\n    /* \"#utility.yul\":3109:3115   */\n  dup2\n    /* \"#utility.yul\":3097:3107   */\n  dup2\n    /* \"#utility.yul\":3094:3116   */\n  lt\n    /* \"#utility.yul\":3073:3091   */\n  0xffffffffffffffff\n    /* \"#utility.yul\":3061:3071   */\n  dup3\n    /* \"#utility.yul\":3058:3092   */\n  gt\n    /* \"#utility.yul\":3055:3117   */\n  or\n    /* \"#utility.yul\":3052:3140   */\n  iszero\n  tag_77\n  jumpi\n    /* \"#utility.yul\":3120:3138   */\n  tag_78\n  tag_60\n  jump\t// in\ntag_78:\n    /* \"#utility.yul\":3052:3140   */\ntag_77:\n    /* \"#utility.yul\":3160:3170   */\n  dup1\n    /* \"#utility.yul\":3156:3158   */\n  0x40\n    /* \"#utility.yul\":3149:3171   */\n  mstore\n    /* \"#utility.yul\":2939:3177   */\n  pop\n    /* \"#utility.yul\":2896:3177   */\n  pop\n  pop\n  jump\t// out\n    /* \"#utility.yul\":3183:3363   */\ntag_74:\n    /* \"#utility.yul\":3231:3308   */\n  0x4e487b7100000000000000000000000000000000000000000000000000000000\n    /* \"#utility.yul\":3228:3229   */\n  0x00\n    /* \"#utility.yul\":3221:3309   */\n  mstore\n    /* \"#utility.yul\":3328:3332   */\n  0x22\n    /* \"#utility.yul\":3325:3326   */\n  0x04\n    /* \"#utility.yul\":3318:3333   */\n  mstore\n    /* \"#utility.yul\":3352:3356   */\n  0x24\n    /* \"#utility.yul\":3349:3350   */\n  0x00\n    /* \"#utility.yul\":3342:3357   */\n  revert\n    /* \"#utility.yul\":3369:3549   */\ntag_60:\n    /* \"#utility.yul\":3417:3494   */\n  0x4e487b7100000000000000000000000000000000000000000000000000000000\n    /* \"#utility.yul\":3414:3415   */\n  0x00\n    /* \"#utility.yul\":3407:3495   */\n  mstore\n    /* \"#utility.yul\":3514:3518   */\n  0x41\n    /* \"#utility.yul\":3511:3512   */\n  0x04\n    /* \"#utility.yul\":3504:3519   */\n  mstore\n    /* \"#utility.yul\":3538:3542   */\n  0x24\n    /* \"#utility.yul\":3535:3536   */\n  0x00\n    /* \"#utility.yul\":3528:3543   */\n  revert\n    /* \"#utility.yul\":3555:3672   */\ntag_36:\n    /* \"#utility.yul\":3664:3665   */\n  0x00\n    /* \"#utility.yul\":3661:3662   */\n  dup1\n    /* \"#utility.yul\":3654:3666   */\n  revert\n    /* \"#utility.yul\":3678:3795   */\ntag_29:\n    /* \"#utility.yul\":3787:3788   */\n  0x00\n    /* \"#utility.yul\":3784:3785   */\n  dup1\n    /* \"#utility.yul\":3777:3789   */\n  revert\n    /* \"#utility.yul\":3801:3918   */\ntag_48:\n    /* \"#utility.yul\":3910:3911   */\n  0x00\n    /* \"#utility.yul\":3907:3908   */\n  dup1\n    /* \"#utility.yul\":3900:3912   */\n  revert\n    /* \"#utility.yul\":3924:4041   */\ntag_45:\n    /* \"#utility.yul\":4033:4034   */\n  0x00\n    /* \"#utility.yul\":4030:4031   */\n  dup1\n    /* \"#utility.yul\":4023:4035   */\n  revert\n    /* \"#utility.yul\":4047:4149   */\ntag_62:\n    /* \"#utility.yul\":4088:4094   */\n  0x00\n    /* \"#utility.yul\":4139:4141   */\n  0x1f\n    /* \"#utility.yul\":4135:4142   */\n  not\n    /* \"#utility.yul\":4130:4132   */\n  0x1f\n    /* \"#utility.yul\":4123:4128   */\n  dup4\n    /* \"#utility.yul\":4119:4133   */\n  add\n    /* \"#utility.yul\":4115:4143   */\n  and\n    /* \"#utility.yul\":4105:4143   */\n  swap1\n  pop\n    /* \"#utility.yul\":4047:4149   */\n  swap2\n  swap1\n  pop\n  jump\t// out\n    /* \"#utility.yul\":4155:4277   */\ntag_41:\n    /* \"#utility.yul\":4228:4252   */\n  tag_87\n    /* \"#utility.yul\":4246:4251   */\n  dup2\n    /* \"#utility.yul\":4228:4252   */\n  tag_63\n  jump\t// in\ntag_87:\n    /* \"#utility.yul\":4221:4226   */\n  dup2\n    /* \"#utility.yul\":4218:4253   */\n  eq\n    /* \"#utility.yul\":4208:4271   */\n  tag_88\n  jumpi\n    /* \"#utility.yul\":4267:4268   */\n  0x00\n    /* \"#utility.yul\":4264:4265   */\n  dup1\n    /* \"#utility.yul\":4257:4269   */\n  revert\n    /* \"#utility.yul\":4208:4271   */\ntag_88:\n    /* \"#utility.yul\":4155:4277   */\n  pop\n  jump\t// out\n    /* \"contracts/Counter.sol\":27:599  contract Counter{\r... */\ntag_8:\n  dataSize(sub_0)\n  dup1\n  dataOffset(sub_0)\n  0x00\n  codecopy\n  0x00\n  return\nstop\n\nsub_0: assembly {\n        /* \"contracts/Counter.sol\":27:599  contract Counter{\r... */\n      mstore(0x40, 0x80)\n      callvalue\n      dup1\n      iszero\n      tag_1\n      jumpi\n      0x00\n      dup1\n      revert\n    tag_1:\n      pop\n      jumpi(tag_2, lt(calldatasize, 0x04))\n      shr(0xe0, calldataload(0x00))\n      dup1\n      0x06661abd\n      eq\n      tag_3\n      jumpi\n      dup1\n      0x06fdde03\n      eq\n      tag_4\n      jumpi\n      dup1\n      0xd09de08a\n      eq\n      tag_5\n      jumpi\n    tag_2:\n      0x00\n      dup1\n      revert\n        /* \"contracts/Counter.sol\":80:99  uint  public  count */\n    tag_3:\n      tag_6\n      tag_7\n      jump\t// in\n    tag_6:\n      mload(0x40)\n      tag_8\n      swap2\n      swap1\n      tag_9\n      jump\t// in\n    tag_8:\n      mload(0x40)\n      dup1\n      swap2\n      sub\n      swap1\n      return\n        /* \"contracts/Counter.sol\":55:73  string public name */\n    tag_4:\n      tag_10\n      tag_11\n      jump\t// in\n    tag_10:\n      mload(0x40)\n      tag_12\n      swap2\n      swap1\n      tag_13\n      jump\t// in\n    tag_12:\n      mload(0x40)\n      dup1\n      swap2\n      sub\n      swap1\n      return\n        /* \"contracts/Counter.sol\":264:381  function increment() public  returns(uint newCount) {\r... */\n    tag_5:\n      tag_14\n      tag_15\n      jump\t// in\n    tag_14:\n      mload(0x40)\n      tag_16\n      swap2\n      swap1\n      tag_9\n      jump\t// in\n    tag_16:\n      mload(0x40)\n      dup1\n      swap2\n      sub\n      swap1\n      return\n        /* \"contracts/Counter.sol\":80:99  uint  public  count */\n    tag_7:\n      sload(0x01)\n      dup2\n      jump\t// out\n        /* \"contracts/Counter.sol\":55:73  string public name */\n    tag_11:\n      0x00\n      dup1\n      sload\n      tag_17\n      swap1\n      tag_18\n      jump\t// in\n    tag_17:\n      dup1\n      0x1f\n      add\n      0x20\n      dup1\n      swap2\n      div\n      mul\n      0x20\n      add\n      mload(0x40)\n      swap1\n      dup2\n      add\n      0x40\n      mstore\n      dup1\n      swap3\n      swap2\n      swap1\n      dup2\n      dup2\n      mstore\n      0x20\n      add\n      dup3\n      dup1\n      sload\n      tag_19\n      swap1\n      tag_18\n      jump\t// in\n    tag_19:\n      dup1\n      iszero\n      tag_20\n      jumpi\n      dup1\n      0x1f\n      lt\n      tag_21\n      jumpi\n      0x0100\n      dup1\n      dup4\n      sload\n      div\n      mul\n      dup4\n      mstore\n      swap2\n      0x20\n      add\n      swap2\n      jump(tag_20)\n    tag_21:\n      dup3\n      add\n      swap2\n      swap1\n      0x00\n      mstore\n      keccak256(0x00, 0x20)\n      swap1\n    tag_22:\n      dup2\n      sload\n      dup2\n      mstore\n      swap1\n      0x01\n      add\n      swap1\n      0x20\n      add\n      dup1\n      dup4\n      gt\n      tag_22\n      jumpi\n      dup3\n      swap1\n      sub\n      0x1f\n      and\n      dup3\n      add\n      swap2\n    tag_20:\n      pop\n      pop\n      pop\n      pop\n      pop\n      dup2\n      jump\t// out\n        /* \"contracts/Counter.sol\":264:381  function increment() public  returns(uint newCount) {\r... */\n    tag_15:\n        /* \"contracts/Counter.sol\":301:314  uint newCount */\n      0x00\n        /* \"contracts/Counter.sol\":339:344  count */\n      0x01\n      0x00\n        /* \"contracts/Counter.sol\":339:346  count++ */\n      dup2\n      sload\n      dup1\n      swap3\n      swap2\n      swap1\n      tag_24\n      swap1\n      tag_25\n      jump\t// in\n    tag_24:\n      swap2\n      swap1\n      pop\n      sstore\n      pop\n        /* \"contracts/Counter.sol\":361:366  count */\n      sload(0x01)\n        /* \"contracts/Counter.sol\":354:366  return count */\n      swap1\n      pop\n        /* \"contracts/Counter.sol\":264:381  function increment() public  returns(uint newCount) {\r... */\n      swap1\n      jump\t// out\n        /* \"#utility.yul\":7:371   */\n    tag_27:\n        /* \"#utility.yul\":95:98   */\n      0x00\n        /* \"#utility.yul\":123:162   */\n      tag_29\n        /* \"#utility.yul\":156:161   */\n      dup3\n        /* \"#utility.yul\":123:162   */\n      tag_30\n      jump\t// in\n    tag_29:\n        /* \"#utility.yul\":178:249   */\n      tag_31\n        /* \"#utility.yul\":242:248   */\n      dup2\n        /* \"#utility.yul\":237:240   */\n      dup6\n        /* \"#utility.yul\":178:249   */\n      tag_32\n      jump\t// in\n    tag_31:\n        /* \"#utility.yul\":171:249   */\n      swap4\n      pop\n        /* \"#utility.yul\":258:310   */\n      tag_33\n        /* \"#utility.yul\":303:309   */\n      dup2\n        /* \"#utility.yul\":298:301   */\n      dup6\n        /* \"#utility.yul\":291:295   */\n      0x20\n        /* \"#utility.yul\":284:289   */\n      dup7\n        /* \"#utility.yul\":280:296   */\n      add\n        /* \"#utility.yul\":258:310   */\n      tag_34\n      jump\t// in\n    tag_33:\n        /* \"#utility.yul\":335:364   */\n      tag_35\n        /* \"#utility.yul\":357:363   */\n      dup2\n        /* \"#utility.yul\":335:364   */\n      tag_36\n      jump\t// in\n    tag_35:\n        /* \"#utility.yul\":330:333   */\n      dup5\n        /* \"#utility.yul\":326:365   */\n      add\n        /* \"#utility.yul\":319:365   */\n      swap2\n      pop\n        /* \"#utility.yul\":99:371   */\n      pop\n        /* \"#utility.yul\":7:371   */\n      swap3\n      swap2\n      pop\n      pop\n      jump\t// out\n        /* \"#utility.yul\":377:495   */\n    tag_37:\n        /* \"#utility.yul\":464:488   */\n      tag_39\n        /* \"#utility.yul\":482:487   */\n      dup2\n        /* \"#utility.yul\":464:488   */\n      tag_40\n      jump\t// in\n    tag_39:\n        /* \"#utility.yul\":459:462   */\n      dup3\n        /* \"#utility.yul\":452:489   */\n      mstore\n        /* \"#utility.yul\":377:495   */\n      pop\n      pop\n      jump\t// out\n        /* \"#utility.yul\":501:814   */\n    tag_13:\n        /* \"#utility.yul\":614:618   */\n      0x00\n        /* \"#utility.yul\":652:654   */\n      0x20\n        /* \"#utility.yul\":641:650   */\n      dup3\n        /* \"#utility.yul\":637:655   */\n      add\n        /* \"#utility.yul\":629:655   */\n      swap1\n      pop\n        /* \"#utility.yul\":701:710   */\n      dup2\n        /* \"#utility.yul\":695:699   */\n      dup2\n        /* \"#utility.yul\":691:711   */\n      sub\n        /* \"#utility.yul\":687:688   */\n      0x00\n        /* \"#utility.yul\":676:685   */\n      dup4\n        /* \"#utility.yul\":672:689   */\n      add\n        /* \"#utility.yul\":665:712   */\n      mstore\n        /* \"#utility.yul\":729:807   */\n      tag_42\n        /* \"#utility.yul\":802:806   */\n      dup2\n        /* \"#utility.yul\":793:799   */\n      dup5\n        /* \"#utility.yul\":729:807   */\n      tag_27\n      jump\t// in\n    tag_42:\n        /* \"#utility.yul\":721:807   */\n      swap1\n      pop\n        /* \"#utility.yul\":501:814   */\n      swap3\n      swap2\n      pop\n      pop\n      jump\t// out\n        /* \"#utility.yul\":820:1042   */\n    tag_9:\n        /* \"#utility.yul\":913:917   */\n      0x00\n        /* \"#utility.yul\":951:953   */\n      0x20\n        /* \"#utility.yul\":940:949   */\n      dup3\n        /* \"#utility.yul\":936:954   */\n      add\n        /* \"#utility.yul\":928:954   */\n      swap1\n      pop\n        /* \"#utility.yul\":964:1035   */\n      tag_44\n        /* \"#utility.yul\":1032:1033   */\n      0x00\n        /* \"#utility.yul\":1021:1030   */\n      dup4\n        /* \"#utility.yul\":1017:1034   */\n      add\n        /* \"#utility.yul\":1008:1014   */\n      dup5\n        /* \"#utility.yul\":964:1035   */\n      tag_37\n      jump\t// in\n    tag_44:\n        /* \"#utility.yul\":820:1042   */\n      swap3\n      swap2\n      pop\n      pop\n      jump\t// out\n        /* \"#utility.yul\":1048:1147   */\n    tag_30:\n        /* \"#utility.yul\":1100:1106   */\n      0x00\n        /* \"#utility.yul\":1134:1139   */\n      dup2\n        /* \"#utility.yul\":1128:1140   */\n      mload\n        /* \"#utility.yul\":1118:1140   */\n      swap1\n      pop\n        /* \"#utility.yul\":1048:1147   */\n      swap2\n      swap1\n      pop\n      jump\t// out\n        /* \"#utility.yul\":1153:1322   */\n    tag_32:\n        /* \"#utility.yul\":1237:1248   */\n      0x00\n        /* \"#utility.yul\":1271:1277   */\n      dup3\n        /* \"#utility.yul\":1266:1269   */\n      dup3\n        /* \"#utility.yul\":1259:1278   */\n      mstore\n        /* \"#utility.yul\":1311:1315   */\n      0x20\n        /* \"#utility.yul\":1306:1309   */\n      dup3\n        /* \"#utility.yul\":1302:1316   */\n      add\n        /* \"#utility.yul\":1287:1316   */\n      swap1\n      pop\n        /* \"#utility.yul\":1153:1322   */\n      swap3\n      swap2\n      pop\n      pop\n      jump\t// out\n        /* \"#utility.yul\":1328:1405   */\n    tag_40:\n        /* \"#utility.yul\":1365:1372   */\n      0x00\n        /* \"#utility.yul\":1394:1399   */\n      dup2\n        /* \"#utility.yul\":1383:1399   */\n      swap1\n      pop\n        /* \"#utility.yul\":1328:1405   */\n      swap2\n      swap1\n      pop\n      jump\t// out\n        /* \"#utility.yul\":1411:1718   */\n    tag_34:\n        /* \"#utility.yul\":1479:1480   */\n      0x00\n        /* \"#utility.yul\":1489:1602   */\n    tag_49:\n        /* \"#utility.yul\":1503:1509   */\n      dup4\n        /* \"#utility.yul\":1500:1501   */\n      dup2\n        /* \"#utility.yul\":1497:1510   */\n      lt\n        /* \"#utility.yul\":1489:1602   */\n      iszero\n      tag_51\n      jumpi\n        /* \"#utility.yul\":1588:1589   */\n      dup1\n        /* \"#utility.yul\":1583:1586   */\n      dup3\n        /* \"#utility.yul\":1579:1590   */\n      add\n        /* \"#utility.yul\":1573:1591   */\n      mload\n        /* \"#utility.yul\":1569:1570   */\n      dup2\n        /* \"#utility.yul\":1564:1567   */\n      dup5\n        /* \"#utility.yul\":1560:1571   */\n      add\n        /* \"#utility.yul\":1553:1592   */\n      mstore\n        /* \"#utility.yul\":1525:1527   */\n      0x20\n        /* \"#utility.yul\":1522:1523   */\n      dup2\n        /* \"#utility.yul\":1518:1528   */\n      add\n        /* \"#utility.yul\":1513:1528   */\n      swap1\n      pop\n        /* \"#utility.yul\":1489:1602   */\n      jump(tag_49)\n    tag_51:\n        /* \"#utility.yul\":1620:1626   */\n      dup4\n        /* \"#utility.yul\":1617:1618   */\n      dup2\n        /* \"#utility.yul\":1614:1627   */\n      gt\n        /* \"#utility.yul\":1611:1712   */\n      iszero\n      tag_52\n      jumpi\n        /* \"#utility.yul\":1700:1701   */\n      0x00\n        /* \"#utility.yul\":1691:1697   */\n      dup5\n        /* \"#utility.yul\":1686:1689   */\n      dup5\n        /* \"#utility.yul\":1682:1698   */\n      add\n        /* \"#utility.yul\":1675:1702   */\n      mstore\n        /* \"#utility.yul\":1611:1712   */\n    tag_52:\n        /* \"#utility.yul\":1460:1718   */\n      pop\n        /* \"#utility.yul\":1411:1718   */\n      pop\n      pop\n      pop\n      jump\t// out\n        /* \"#utility.yul\":1724:2044   */\n    tag_18:\n        /* \"#utility.yul\":1768:1774   */\n      0x00\n        /* \"#utility.yul\":1805:1806   */\n      0x02\n        /* \"#utility.yul\":1799:1803   */\n      dup3\n        /* \"#utility.yul\":1795:1807   */\n      div\n        /* \"#utility.yul\":1785:1807   */\n      swap1\n      pop\n        /* \"#utility.yul\":1852:1853   */\n      0x01\n        /* \"#utility.yul\":1846:1850   */\n      dup3\n        /* \"#utility.yul\":1842:1854   */\n      and\n        /* \"#utility.yul\":1873:1891   */\n      dup1\n        /* \"#utility.yul\":1863:1944   */\n      tag_54\n      jumpi\n        /* \"#utility.yul\":1929:1933   */\n      0x7f\n        /* \"#utility.yul\":1921:1927   */\n      dup3\n        /* \"#utility.yul\":1917:1934   */\n      and\n        /* \"#utility.yul\":1907:1934   */\n      swap2\n      pop\n        /* \"#utility.yul\":1863:1944   */\n    tag_54:\n        /* \"#utility.yul\":1991:1993   */\n      0x20\n        /* \"#utility.yul\":1983:1989   */\n      dup3\n        /* \"#utility.yul\":1980:1994   */\n      lt\n        /* \"#utility.yul\":1960:1978   */\n      dup2\n        /* \"#utility.yul\":1957:1995   */\n      eq\n        /* \"#utility.yul\":1954:2038   */\n      iszero\n      tag_55\n      jumpi\n        /* \"#utility.yul\":2010:2028   */\n      tag_56\n      tag_57\n      jump\t// in\n    tag_56:\n        /* \"#utility.yul\":1954:2038   */\n    tag_55:\n        /* \"#utility.yul\":1775:2044   */\n      pop\n        /* \"#utility.yul\":1724:2044   */\n      swap2\n      swap1\n      pop\n      jump\t// out\n        /* \"#utility.yul\":2050:2283   */\n    tag_25:\n        /* \"#utility.yul\":2089:2092   */\n      0x00\n        /* \"#utility.yul\":2112:2136   */\n      tag_59\n        /* \"#utility.yul\":2130:2135   */\n      dup3\n        /* \"#utility.yul\":2112:2136   */\n      tag_40\n      jump\t// in\n    tag_59:\n        /* \"#utility.yul\":2103:2136   */\n      swap2\n      pop\n        /* \"#utility.yul\":2158:2224   */\n      0xffffffffffffffffffffffffffffffffffffffffffffffffffffffffffffffff\n        /* \"#utility.yul\":2151:2156   */\n      dup3\n        /* \"#utility.yul\":2148:2225   */\n      eq\n        /* \"#utility.yul\":2145:2248   */\n      iszero\n      tag_60\n      jumpi\n        /* \"#utility.yul\":2228:2246   */\n      tag_61\n      tag_62\n      jump\t// in\n    tag_61:\n        /* \"#utility.yul\":2145:2248   */\n    tag_60:\n        /* \"#utility.yul\":2275:2276   */\n      0x01\n        /* \"#utility.yul\":2268:2273   */\n      dup3\n        /* \"#utility.yul\":2264:2277   */\n      add\n        /* \"#utility.yul\":2257:2277   */\n      swap1\n      pop\n        /* \"#utility.yul\":2050:2283   */\n      swap2\n      swap1\n      pop\n      jump\t// out\n        /* \"#utility.yul\":2289:2469   */\n    tag_62:\n        /* \"#utility.yul\":2337:2414   */\n      0x4e487b7100000000000000000000000000000000000000000000000000000000\n        /* \"#utility.yul\":2334:2335   */\n      0x00\n        /* \"#utility.yul\":2327:2415   */\n      mstore\n        /* \"#utility.yul\":2434:2438   */\n      0x11\n        /* \"#utility.yul\":2431:2432   */\n      0x04\n        /* \"#utility.yul\":2424:2439   */\n      mstore\n        /* \"#utility.yul\":2458:2462   */\n      0x24\n        /* \"#utility.yul\":2455:2456   */\n      0x00\n        /* \"#utility.yul\":2448:2463   */\n      revert\n        /* \"#utility.yul\":2475:2655   */\n    tag_57:\n        /* \"#utility.yul\":2523:2600   */\n      0x4e487b7100000000000000000000000000000000000000000000000000000000\n        /* \"#utility.yul\":2520:2521   */\n      0x00\n        /* \"#utility.yul\":2513:2601   */\n      mstore\n        /* \"#utility.yul\":2620:2624   */\n      0x22\n        /* \"#utility.yul\":2617:2618   */\n      0x04\n        /* \"#utility.yul\":2610:2625   */\n      mstore\n        /* \"#utility.yul\":2644:2648   */\n      0x24\n        /* \"#utility.yul\":2641:2642   */\n      0x00\n        /* \"#utility.yul\":2634:2649   */\n      revert\n        /* \"#utility.yul\":2661:2763   */\n    tag_36:\n        /* \"#utility.yul\":2702:2708   */\n      0x00\n        /* \"#utility.yul\":2753:2755   */\n      0x1f\n        /* \"#utility.yul\":2749:2756   */\n      not\n        /* \"#utility.yul\":2744:2746   */\n      0x1f\n        /* \"#utility.yul\":2737:2742   */\n      dup4\n        /* \"#utility.yul\":2733:2747   */\n      add\n        /* \"#utility.yul\":2729:2757   */\n      and\n        /* \"#utility.yul\":2719:2757   */\n      swap1\n      pop\n        /* \"#utility.yul\":2661:2763   */\n      swap2\n      swap1\n      pop\n      jump\t// out\n\n    auxdata: 0xa2646970667358221220cfef6b08db7747e20f697b6cb712a5b62207013d23d5861a2a2bbac38a3dce3064736f6c63430008070033\n}\n",
				"bytecode": {
					"linkReferences": {},
					"object": "608060405234801561001057600080fd5b506040516106ce3803806106ce8339818101604052810190610032919061017f565b8160009080519060200190610048929190610057565b5080600181905550505061036b565b8280546100639061026e565b90600052602060002090601f01602090048101928261008557600085556100cc565b82601f1061009e57805160ff19168380011785556100cc565b828001600101855582156100cc579182015b828111156100cb5782518255916020019190600101906100b0565b5b5090506100d991906100dd565b5090565b5b808211156100f65760008160009055506001016100de565b5090565b600061010d61010884610200565b6101db565b90508281526020810184848401111561012957610128610334565b5b61013484828561023b565b509392505050565b600082601f8301126101515761015061032f565b5b81516101618482602086016100fa565b91505092915050565b60008151905061017981610354565b92915050565b600080604083850312156101965761019561033e565b5b600083015167ffffffffffffffff8111156101b4576101b3610339565b5b6101c08582860161013c565b92505060206101d18582860161016a565b9150509250929050565b60006101e56101f6565b90506101f182826102a0565b919050565b6000604051905090565b600067ffffffffffffffff82111561021b5761021a610300565b5b61022482610343565b9050602081019050919050565b6000819050919050565b60005b8381101561025957808201518184015260208101905061023e565b83811115610268576000848401525b50505050565b6000600282049050600182168061028657607f821691505b6020821081141561029a576102996102d1565b5b50919050565b6102a982610343565b810181811067ffffffffffffffff821117156102c8576102c7610300565b5b80604052505050565b7f4e487b7100000000000000000000000000000000000000000000000000000000600052602260045260246000fd5b7f4e487b7100000000000000000000000000000000000000000000000000000000600052604160045260246000fd5b600080fd5b600080fd5b600080fd5b600080fd5b6000601f19601f8301169050919050565b61035d81610231565b811461036857600080fd5b50565b6103548061037a6000396000f3fe608060405234801561001057600080fd5b50600436106100415760003560e01c806306661abd1461004657806306fdde0314610064578063d09de08a14610082575b600080fd5b61004e6100a0565b60405161005b91906101c0565b60405180910390f35b61006c6100a6565b604051610079919061019e565b60405180910390f35b61008a610134565b60405161009791906101c0565b60405180910390f35b60015481565b600080546100b390610234565b80601f01602080910402602001604051908101604052809291908181526020018280546100df90610234565b801561012c5780601f106101015761010080835404028352916020019161012c565b820191906000526020600020905b81548152906001019060200180831161010f57829003601f168201915b505050505081565b60006001600081548092919061014990610266565b9190505550600154905090565b6000610161826101db565b61016b81856101e6565b935061017b818560208601610201565b6101848161030d565b840191505092915050565b610198816101f7565b82525050565b600060208201905081810360008301526101b88184610156565b905092915050565b60006020820190506101d5600083018461018f565b92915050565b600081519050919050565b600082825260208201905092915050565b6000819050919050565b60005b8381101561021f578082015181840152602081019050610204565b8381111561022e576000848401525b50505050565b6000600282049050600182168061024c57607f821691505b602082108114156102605761025f6102de565b5b50919050565b6000610271826101f7565b91507fffffffffffffffffffffffffffffffffffffffffffffffffffffffffffffffff8214156102a4576102a36102af565b5b600182019050919050565b7f4e487b7100000000000000000000000000000000000000000000000000000000600052601160045260246000fd5b7f4e487b7100000000000000000000000000000000000000000000000000000000600052602260045260246000fd5b6000601f19601f830116905091905056fea2646970667358221220cfef6b08db7747e20f697b6cb712a5b62207013d23d5861a2a2bbac38a3dce3064736f6c63430008070033",
					"opcodes": "PUSH1 0x80 PUSH1 0x40 MSTORE CALLVALUE DUP1 ISZERO PUSH2 0x10 JUMPI PUSH1 0x0 DUP1 REVERT JUMPDEST POP PUSH1 0x40 MLOAD PUSH2 0x6CE CODESIZE SUB DUP1 PUSH2 0x6CE DUP4 CODECOPY DUP2 DUP2 ADD PUSH1 0x40 MSTORE DUP2 ADD SWAP1 PUSH2 0x32 SWAP2 SWAP1 PUSH2 0x17F JUMP JUMPDEST DUP2 PUSH1 0x0 SWAP1 DUP1 MLOAD SWAP1 PUSH1 0x20 ADD SWAP1 PUSH2 0x48 SWAP3 SWAP2 SWAP1 PUSH2 0x57 JUMP JUMPDEST POP DUP1 PUSH1 0x1 DUP2 SWAP1 SSTORE POP POP POP PUSH2 0x36B JUMP JUMPDEST DUP3 DUP1 SLOAD PUSH2 0x63 SWAP1 PUSH2 0x26E JUMP JUMPDEST SWAP1 PUSH1 0x0 MSTORE PUSH1 0x20 PUSH1 0x0 KECCAK256 SWAP1 PUSH1 0x1F ADD PUSH1 0x20 SWAP1 DIV DUP2 ADD SWAP3 DUP3 PUSH2 0x85 JUMPI PUSH1 0x0 DUP6 SSTORE PUSH2 0xCC JUMP JUMPDEST DUP3 PUSH1 0x1F LT PUSH2 0x9E JUMPI DUP1 MLOAD PUSH1 0xFF NOT AND DUP4 DUP1 ADD OR DUP6 SSTORE PUSH2 0xCC JUMP JUMPDEST DUP3 DUP1 ADD PUSH1 0x1 ADD DUP6 SSTORE DUP3 ISZERO PUSH2 0xCC JUMPI SWAP2 DUP3 ADD JUMPDEST DUP3 DUP2 GT ISZERO PUSH2 0xCB JUMPI DUP3 MLOAD DUP3 SSTORE SWAP2 PUSH1 0x20 ADD SWAP2 SWAP1 PUSH1 0x1 ADD SWAP1 PUSH2 0xB0 JUMP JUMPDEST JUMPDEST POP SWAP1 POP PUSH2 0xD9 SWAP2 SWAP1 PUSH2 0xDD JUMP JUMPDEST POP SWAP1 JUMP JUMPDEST JUMPDEST DUP1 DUP3 GT ISZERO PUSH2 0xF6 JUMPI PUSH1 0x0 DUP2 PUSH1 0x0 SWAP1 SSTORE POP PUSH1 0x1 ADD PUSH2 0xDE JUMP JUMPDEST POP SWAP1 JUMP JUMPDEST PUSH1 0x0 PUSH2 0x10D PUSH2 0x108 DUP5 PUSH2 0x200 JUMP JUMPDEST PUSH2 0x1DB JUMP JUMPDEST SWAP1 POP DUP3 DUP2 MSTORE PUSH1 0x20 DUP2 ADD DUP5 DUP5 DUP5 ADD GT ISZERO PUSH2 0x129 JUMPI PUSH2 0x128 PUSH2 0x334 JUMP JUMPDEST JUMPDEST PUSH2 0x134 DUP5 DUP3 DUP6 PUSH2 0x23B JUMP JUMPDEST POP SWAP4 SWAP3 POP POP POP JUMP JUMPDEST PUSH1 0x0 DUP3 PUSH1 0x1F DUP4 ADD SLT PUSH2 0x151 JUMPI PUSH2 0x150 PUSH2 0x32F JUMP JUMPDEST JUMPDEST DUP2 MLOAD PUSH2 0x161 DUP5 DUP3 PUSH1 0x20 DUP7 ADD PUSH2 0xFA JUMP JUMPDEST SWAP2 POP POP SWAP3 SWAP2 POP POP JUMP JUMPDEST PUSH1 0x0 DUP2 MLOAD SWAP1 POP PUSH2 0x179 DUP2 PUSH2 0x354 JUMP JUMPDEST SWAP3 SWAP2 POP POP JUMP JUMPDEST PUSH1 0x0 DUP1 PUSH1 0x40 DUP4 DUP6 SUB SLT ISZERO PUSH2 0x196 JUMPI PUSH2 0x195 PUSH2 0x33E JUMP JUMPDEST JUMPDEST PUSH1 0x0 DUP4 ADD MLOAD PUSH8 0xFFFFFFFFFFFFFFFF DUP2 GT ISZERO PUSH2 0x1B4 JUMPI PUSH2 0x1B3 PUSH2 0x339 JUMP JUMPDEST JUMPDEST PUSH2 0x1C0 DUP6 DUP3 DUP7 ADD PUSH2 0x13C JUMP JUMPDEST SWAP3 POP POP PUSH1 0x20 PUSH2 0x1D1 DUP6 DUP3 DUP7 ADD PUSH2 0x16A JUMP JUMPDEST SWAP2 POP POP SWAP3 POP SWAP3 SWAP1 POP JUMP JUMPDEST PUSH1 0x0 PUSH2 0x1E5 PUSH2 0x1F6 JUMP JUMPDEST SWAP1 POP PUSH2 0x1F1 DUP3 DUP3 PUSH2 0x2A0 JUMP JUMPDEST SWAP2 SWAP1 POP JUMP JUMPDEST PUSH1 0x0 PUSH1 0x40 MLOAD SWAP1 POP SWAP1 JUMP JUMPDEST PUSH1 0x0 PUSH8 0xFFFFFFFFFFFFFFFF DUP3 GT ISZERO PUSH2 0x21B JUMPI PUSH2 0x21A PUSH2 0x300 JUMP JUMPDEST JUMPDEST PUSH2 0x224 DUP3 PUSH2 0x343 JUMP JUMPDEST SWAP1 POP PUSH1 0x20 DUP2 ADD SWAP1 POP SWAP2 SWAP1 POP JUMP JUMPDEST PUSH1 0x0 DUP2 SWAP1 POP SWAP2 SWAP1 POP JUMP JUMPDEST PUSH1 0x0 JUMPDEST DUP4 DUP2 LT ISZERO PUSH2 0x259 JUMPI DUP1 DUP3 ADD MLOAD DUP2 DUP5 ADD MSTORE PUSH1 0x20 DUP2 ADD SWAP1 POP PUSH2 0x23E JUMP JUMPDEST DUP4 DUP2 GT ISZERO PUSH2 0x268 JUMPI PUSH1 0x0 DUP5 DUP5 ADD MSTORE JUMPDEST POP POP POP POP JUMP JUMPDEST PUSH1 0x0 PUSH1 0x2 DUP3 DIV SWAP1 POP PUSH1 0x1 DUP3 AND DUP1 PUSH2 0x286 JUMPI PUSH1 0x7F DUP3 AND SWAP2 POP JUMPDEST PUSH1 0x20 DUP3 LT DUP2 EQ ISZERO PUSH2 0x29A JUMPI PUSH2 0x299 PUSH2 0x2D1 JUMP JUMPDEST JUMPDEST POP SWAP2 SWAP1 POP JUMP JUMPDEST PUSH2 0x2A9 DUP3 PUSH2 0x343 JUMP JUMPDEST DUP2 ADD DUP2 DUP2 LT PUSH8 0xFFFFFFFFFFFFFFFF DUP3 GT OR ISZERO PUSH2 0x2C8 JUMPI PUSH2 0x2C7 PUSH2 0x300 JUMP JUMPDEST JUMPDEST DUP1 PUSH1 0x40 MSTORE POP POP POP JUMP JUMPDEST PUSH32 0x4E487B7100000000000000000000000000000000000000000000000000000000 PUSH1 0x0 MSTORE PUSH1 0x22 PUSH1 0x4 MSTORE PUSH1 0x24 PUSH1 0x0 REVERT JUMPDEST PUSH32 0x4E487B7100000000000000000000000000000000000000000000000000000000 PUSH1 0x0 MSTORE PUSH1 0x41 PUSH1 0x4 MSTORE PUSH1 0x24 PUSH1 0x0 REVERT JUMPDEST PUSH1 0x0 DUP1 REVERT JUMPDEST PUSH1 0x0 DUP1 REVERT JUMPDEST PUSH1 0x0 DUP1 REVERT JUMPDEST PUSH1 0x0 DUP1 REVERT JUMPDEST PUSH1 0x0 PUSH1 0x1F NOT PUSH1 0x1F DUP4 ADD AND SWAP1 POP SWAP2 SWAP1 POP JUMP JUMPDEST PUSH2 0x35D DUP2 PUSH2 0x231 JUMP JUMPDEST DUP2 EQ PUSH2 0x368 JUMPI PUSH1 0x0 DUP1 REVERT JUMPDEST POP JUMP JUMPDEST PUSH2 0x354 DUP1 PUSH2 0x37A PUSH1 0x0 CODECOPY PUSH1 0x0 RETURN INVALID PUSH1 0x80 PUSH1 0x40 MSTORE CALLVALUE DUP1 ISZERO PUSH2 0x10 JUMPI PUSH1 0x0 DUP1 REVERT JUMPDEST POP PUSH1 0x4 CALLDATASIZE LT PUSH2 0x41 JUMPI PUSH1 0x0 CALLDATALOAD PUSH1 0xE0 SHR DUP1 PUSH4 0x6661ABD EQ PUSH2 0x46 JUMPI DUP1 PUSH4 0x6FDDE03 EQ PUSH2 0x64 JUMPI DUP1 PUSH4 0xD09DE08A EQ PUSH2 0x82 JUMPI JUMPDEST PUSH1 0x0 DUP1 REVERT JUMPDEST PUSH2 0x4E PUSH2 0xA0 JUMP JUMPDEST PUSH1 0x40 MLOAD PUSH2 0x5B SWAP2 SWAP1 PUSH2 0x1C0 JUMP JUMPDEST PUSH1 0x40 MLOAD DUP1 SWAP2 SUB SWAP1 RETURN JUMPDEST PUSH2 0x6C PUSH2 0xA6 JUMP JUMPDEST PUSH1 0x40 MLOAD PUSH2 0x79 SWAP2 SWAP1 PUSH2 0x19E JUMP JUMPDEST PUSH1 0x40 MLOAD DUP1 SWAP2 SUB SWAP1 RETURN JUMPDEST PUSH2 0x8A PUSH2 0x134 JUMP JUMPDEST PUSH1 0x40 MLOAD PUSH2 0x97 SWAP2 SWAP1 PUSH2 0x1C0 JUMP JUMPDEST PUSH1 0x40 MLOAD DUP1 SWAP2 SUB SWAP1 RETURN JUMPDEST PUSH1 0x1 SLOAD DUP2 JUMP JUMPDEST PUSH1 0x0 DUP1 SLOAD PUSH2 0xB3 SWAP1 PUSH2 0x234 JUMP JUMPDEST DUP1 PUSH1 0x1F ADD PUSH1 0x20 DUP1 SWAP2 DIV MUL PUSH1 0x20 ADD PUSH1 0x40 MLOAD SWAP1 DUP2 ADD PUSH1 0x40 MSTORE DUP1 SWAP3 SWAP2 SWAP1 DUP2 DUP2 MSTORE PUSH1 0x20 ADD DUP3 DUP1 SLOAD PUSH2 0xDF SWAP1 PUSH2 0x234 JUMP JUMPDEST DUP1 ISZERO PUSH2 0x12C JUMPI DUP1 PUSH1 0x1F LT PUSH2 0x101 JUMPI PUSH2 0x100 DUP1 DUP4 SLOAD DIV MUL DUP4 MSTORE SWAP2 PUSH1 0x20 ADD SWAP2 PUSH2 0x12C JUMP JUMPDEST DUP3 ADD SWAP2 SWAP1 PUSH1 0x0 MSTORE PUSH1 0x20 PUSH1 0x0 KECCAK256 SWAP1 JUMPDEST DUP2 SLOAD DUP2 MSTORE SWAP1 PUSH1 0x1 ADD SWAP1 PUSH1 0x20 ADD DUP1 DUP4 GT PUSH2 0x10F JUMPI DUP3 SWAP1 SUB PUSH1 0x1F AND DUP3 ADD SWAP2 JUMPDEST POP POP POP POP POP DUP2 JUMP JUMPDEST PUSH1 0x0 PUSH1 0x1 PUSH1 0x0 DUP2 SLOAD DUP1 SWAP3 SWAP2 SWAP1 PUSH2 0x149 SWAP1 PUSH2 0x266 JUMP JUMPDEST SWAP2 SWAP1 POP SSTORE POP PUSH1 0x1 SLOAD SWAP1 POP SWAP1 JUMP JUMPDEST PUSH1 0x0 PUSH2 0x161 DUP3 PUSH2 0x1DB JUMP JUMPDEST PUSH2 0x16B DUP2 DUP6 PUSH2 0x1E6 JUMP JUMPDEST SWAP4 POP PUSH2 0x17B DUP2 DUP6 PUSH1 0x20 DUP7 ADD PUSH2 0x201 JUMP JUMPDEST PUSH2 0x184 DUP2 PUSH2 0x30D JUMP JUMPDEST DUP5 ADD SWAP2 POP POP SWAP3 SWAP2 POP POP JUMP JUMPDEST PUSH2 0x198 DUP2 PUSH2 0x1F7 JUMP JUMPDEST DUP3 MSTORE POP POP JUMP JUMPDEST PUSH1 0x0 PUSH1 0x20 DUP3 ADD SWAP1 POP DUP2 DUP2 SUB PUSH1 0x0 DUP4 ADD MSTORE PUSH2 0x1B8 DUP2 DUP5 PUSH2 0x156 JUMP JUMPDEST SWAP1 POP SWAP3 SWAP2 POP POP JUMP JUMPDEST PUSH1 0x0 PUSH1 0x20 DUP3 ADD SWAP1 POP PUSH2 0x1D5 PUSH1 0x0 DUP4 ADD DUP5 PUSH2 0x18F JUMP JUMPDEST SWAP3 SWAP2 POP POP JUMP JUMPDEST PUSH1 0x0 DUP2 MLOAD SWAP1 POP SWAP2 SWAP1 POP JUMP JUMPDEST PUSH1 0x0 DUP3 DUP3 MSTORE PUSH1 0x20 DUP3 ADD SWAP1 POP SWAP3 SWAP2 POP POP JUMP JUMPDEST PUSH1 0x0 DUP2 SWAP1 POP SWAP2 SWAP1 POP JUMP JUMPDEST PUSH1 0x0 JUMPDEST DUP4 DUP2 LT ISZERO PUSH2 0x21F JUMPI DUP1 DUP3 ADD MLOAD DUP2 DUP5 ADD MSTORE PUSH1 0x20 DUP2 ADD SWAP1 POP PUSH2 0x204 JUMP JUMPDEST DUP4 DUP2 GT ISZERO PUSH2 0x22E JUMPI PUSH1 0x0 DUP5 DUP5 ADD MSTORE JUMPDEST POP POP POP POP JUMP JUMPDEST PUSH1 0x0 PUSH1 0x2 DUP3 DIV SWAP1 POP PUSH1 0x1 DUP3 AND DUP1 PUSH2 0x24C JUMPI PUSH1 0x7F DUP3 AND SWAP2 POP JUMPDEST PUSH1 0x20 DUP3 LT DUP2 EQ ISZERO PUSH2 0x260 JUMPI PUSH2 0x25F PUSH2 0x2DE JUMP JUMPDEST JUMPDEST POP SWAP2 SWAP1 POP JUMP JUMPDEST PUSH1 0x0 PUSH2 0x271 DUP3 PUSH2 0x1F7 JUMP JUMPDEST SWAP2 POP PUSH32 0xFFFFFFFFFFFFFFFFFFFFFFFFFFFFFFFFFFFFFFFFFFFFFFFFFFFFFFFFFFFFFFFF DUP3 EQ ISZERO PUSH2 0x2A4 JUMPI PUSH2 0x2A3 PUSH2 0x2AF JUMP JUMPDEST JUMPDEST PUSH1 0x1 DUP3 ADD SWAP1 POP SWAP2 SWAP1 POP JUMP JUMPDEST PUSH32 0x4E487B7100000000000000000000000000000000000000000000000000000000 PUSH1 0x0 MSTORE PUSH1 0x11 PUSH1 0x4 MSTORE PUSH1 0x24 PUSH1 0x0 REVERT JUMPDEST PUSH32 0x4E487B7100000000000000000000000000000000000000000000000000000000 PUSH1 0x0 MSTORE PUSH1 0x22 PUSH1 0x4 MSTORE PUSH1 0x24 PUSH1 0x0 REVERT JUMPDEST PUSH1 0x0 PUSH1 0x1F NOT PUSH1 0x1F DUP4 ADD AND SWAP1 POP SWAP2 SWAP1 POP JUMP INVALID LOG2 PUSH5 0x6970667358 0x22 SLT KECCAK256 0xCF 0xEF PUSH12 0x8DB7747E20F697B6CB712A5 0xB6 0x22 SMOD ADD RETURNDATASIZE 0x23 0xD5 DUP7 BYTE 0x2A 0x2B 0xBA 0xC3 DUP11 RETURNDATASIZE 0xCE ADDRESS PUSH5 0x736F6C6343 STOP ADDMOD SMOD STOP CALLER "
				},
				"gasEstimates": {
					"creation": {
						"codeDepositCost": "170400",
						"executionCost": "infinite",
						"totalCost": "infinite"
					},
					"external": {
						"count()": "2407",
						"increment()": "infinite",
						"name()": "infinite"
					}
				},
				"methodIdentifiers": {
					"count()": "06661abd",
					"increment()": "d09de08a",
					"name()": "06fdde03"
				}
			},
			"storageLayout": {
				"storage": [
					{
						"astId": 3,
						"contract": "contracts/Counter.sol:Counter",
						"label": "name",
						"offset": 0,
						"slot": "0",
						"type": "t_string_storage"
					},
					{
						"astId": 5,
						"contract": "contracts/Counter.sol:Counter",
						"label": "count",
						"offset": 0,
						"slot": "1",
						"type": "t_uint256"
					}
				],
				"types": {
					"t_string_storage": {
						"encoding": "bytes",
						"label": "string",
						"numberOfBytes": "32"
					},
					"t_uint256": {
						"encoding": "inplace",
						"label": "uint256",
						"numberOfBytes": "32"
					}
				}
			},
			"userdoc": {
				"kind": "user",
				"methods": {},
				"version": 1
			}
		}
	}
}